:020000020000FC
:10000000C8C01895189518951895189518951895AD
:100010001895189518951895189518951895189578
:1000200018951895189518951895D89804E6D02E17
:10003000DA94F1F7D89A08950FEF04BB15BB05EDDC
:100040000BBB0000000000000000D99A002704BB91
:1000500005BB08950FEF04BB45BB01ED0BBB0000D2
:10006000000000000000D99AC0FE089511D00FEFE3
:1000700004BB55BB01ED0BBB0000000000000000FD
:10008000D99A0C2D0E7FC02E002704BB05BB089506
:10009000002704BB0DEC0BBB0000000000000000BB
:1000A00003B3D99A02230217A9F70895EE0FFF1F91
:1000B000C895402DEDDFCEDF31961197C9F7089531
:1000C00004EAE02EEA94F1F70895FADFF9DFF8DFA9
:1000D000089504E6F02EF4DFFA94E9F7089504E1B8
:1000E000D02EF7DFDA94E9F70895F9DFF8DFF7DFCC
:1000F000F6DFF5DF089508ECD02EEBDFDA94E9F7B0
:1001000008950C2D0160C02E23E0C2DFA3DF14E2AE
:1001100023E0BEDF91DF10EB23E0BADF8DDF552750
:10012000462D28E0B5DF96DF1197E1F712EB23E0CB
:10013000AFDF82DF08950C2D0160C02E23E0A8DF21
:1001400089DF14E223E0A4DF77DF10EB23E0A0DFF8
:1001500073DF28E0ABDF12EB23E09ADF6DDF089559
:10016000AD010C2D0160C02E23E092DF73DF14E29D
:1001700023E08EDF61DF462D23E08ADF6BDF14ECA6
:1001800023E086DF59DF119623942414350441F7C8
:10019000089502E00EBF0FE50DBFCC240FEF0ABBA0
:1001A0000BBB43DF57E040E80C2D0160C02E23E07D
:1001B0006FDF50DF10E423E06BDF3EDF552744277D
:1001C0000C2D0160C02E23E063DF44DF12E423E046
:1001D0005FDF32DF552740E10C2D0160C02E23E0A8
:1001E00057DF38DF11E423E053DF26DF552740E1F6
:1001F0000C2D0160C02E23E04BDF2CDF13E423E045
:1002000047DF1ADF10E823E043DF16DF1CE923E0B5
:100210003FDF12DF57E040E86624B0E0A0E871DF7E
:10022000552744276624B4E0A0E06BDF2224332462
:100230007724BB27AA2700E1202E00E8602E239C0C
:10024000070CA0010C2D0160C02E23E021DF02DF8E
:1002500014E223E01DDFF0DE462D23E019DFFADE95
:1002600014EC23E015DFE8DE3394032D003431F085
:1002700066940FB700FFE3CF7394DFCF22243324BB
:10028000BB27AA270FEF602E552400E1402E68DF20
:1002900022243324B3E0A0EF0FEF602E552400E1B9
:1002A000402E5EDF57E041EBF4E0E0E0B0E0ADE08F
:0602B00042DF00C0FFCF99
:1008000034002F0033002800290022002100FF853A
:10081000FFFE80000000000DF40000000000FF87D4
:10082000FFF6800000000003E80000000000FF4722
:10083000FFEA800000000000F00000400000FF5FC1
:10084000FF6A800000000001680000500000FFDF28
:10085000FF95400000000000940000100000FFFF22
:100860007F6AA00000000000AC00000800003FFF0D
:10087000FE95500000000180AA00001400005FFFF8
:10088000FD6AA800000002815400002A00000FFF4A
:10089000FE92A80000000080A4000008000007FFEE
:1008A000FAEAA8000000048140000000000003FFF5
:1008B000FD55A8000000000040000000000003FFFC
:1008C000FD5460000000088054000000000000FF9C
:1008D000FEAC000000000000180000000000003F17
:1008E000F550000000000080600000000000000FD4
:1008F000552C0000001000821F02000000000007BD
:10090000AAD00000055440159F432A000000800F24
:10091000F528000012AA48002F819F800000C00720
:10092000FFD000000CFC14781FFAFFB00000F8079D
:10093000FF600000023E827FC57AFF8BC000FE0789
:10094000FE80000001C673FFFBFD3FFFC000FF03F8
:10095000FE8000002C38217FFFFEEF3FE000FF0308
:10096000FD0000005F7E4EFFFFFD07FFF000FF81EE
:10097000FE000000BFFE0C37FFFF8FF3FC00FF41BD
:10098000FA0000007FFC980FFFFF9FF47F80FF803C
:10099000FC0000001FF95D3FFFFFFFFF8780FF00A5
:1009A000780000003FF17E7FFFFFF7FFE000FFC00F
:1009B000080000002BFFEFFFFFFFD7FFF000FFE074
:1009C000000000002FFFEF7FFFFFEFFFF000FFFCB4
:1009D000000000000FFFFFFFFFFFF4FFF000FFFF2C
:1009E0000000000011FFFFFFFFFFFA7FF000FFFF94
:1009F000C0000000236FFFFFFFFFFE0FE000FFFFBE
:100A0000F0008000AD0BFFFFFFFFFE000000FFFFC6
:100A1000FE0740015A55FFFFFFFFFF000000FFFFE8
:100A2000FE1540016563FFFFFFFFFF800000FFFF31
:100A3000FFABE002AAF3FFFFFFFFFFC00000FFFFD4
:100A4000FF57E40155A7FFFFFFFFFFE00000FFFF96
:100A5000FFEBF202BFBFFFFFFFFFFFF00000FFFF51
:100A6000FFDBFF823FFFFFFFFFFFFFF00000FFFF04
:100A7000FFFCFF93FFFFFFFFFFFFFFF40000FFFFFE
:100A8000FFFFFEC3FE7FFFFFFFFFFFF80000FFFF39
:100A9000FFFFFE81F87FFFFFFFFFFFFE0000FFFF6B
:100AA000FFFFFF37F8FFFFFFFFFFFFFC0000FFFF26
:100AB000FFFFF573F8FFFFFFFFFFFFFE8000FFFF62
:100AC000FFFFF9FFFFFFFFFFFFFFFFFF0000FFFF3A
:100AD000FFFFFBB7FFFFFFFFFFFFFFFF4000FFFF30
:100AE000FFFFEFBF7FF9FFFFFFFFFFFF8000FFFF6A
:100AF000FFFFEDFE7FE8FFFFFFFFFFFFE000FFFFCE
:100B0000FFFFFFFEFFF03FFFFFFFFFFFC000FFFF03
:100B1000FFFFFFFEFFF81FE0FFFFFFFFF000FFFFFA
:100B2000FFFFFFFEFFF007C03FFFFFFFF000FFFFEA
:100B3000FFFFFFFFFFF003C007FFFFFFF000FFFF15
:100B4000FFFFFFFFFFF0000000FFFFFFF800FFFFC7
:100B5000FFFCFFFFFFF00000000FFFFFF000FFFFB2
:100B6000FFFC7FFFFFE000001201FFFF8000FFFF9E
:100B7000FFFC7FFFBFE000002A000FFF0000FFFF27
:100B8000FFFE7FFF5FC000A0558000000000FFFF58
:100B9000FFFE7FFEAF000054560000000000FFFF84
:100BA000FFFE3FFF40000154A80000000000FFFFCF
:100BB000FFFF3FFF800000AF500000000000FFFF7C
:100BC000FFFFFFFF402802BEA00000000000FFFF63
:100BD000FFFFFFFFA115427F500000000000FFFF54
:100BE000FFFFFFFFAA5EABFF540000000000FFFF05
:100BF000FFFFFFFFAAAF55FFA80000000000FFFFA6
:0E0C0000FFFFFFFFD52ED7FF500000000000C1
:00000001FF
